:040000009DEF26F05A
:100800000000000000DCCFD1350000000000C01562
:100810003F6042A20D70A5EC363BAAB83F4F387638
:100820003F3CAA38338CBEBF350072313F1872315D
:100830003F4CBB31330EEADDB555B38A38610B3618
:10084000BBABAA2A3E42F1533E55326C3E05A38B08
:100850003EABAAAA3EB76DDB3E9A99193F6042A211
:100860000DCAF249710000804B0000803F0000C0BB
:0F0870003F00AAB83FC623F6B80040763F00000D
:1008800084C0B8F185C0B9F186C0BAF187C0BBF1A8
:10089000B8C160F1B9C161F1BAC162F1BBC163F124
:1008A00088C0B8F189C0B9F18AC0BAF18BC0BBF178
:1008B000B8C184F1B9C185F1BAC186F1BBC187F174
:1008C000FF0E01016015A86FFF0E6115A96FFF0EE5
:1008D0006215AA6F7F0E6315AB6FFF0E8415986FBC
:1008E000FF0E8515996FFF0E86159A6F7F0E87157F
:1008F0009B6F985199119A119B11D8A482EF04F023
:1009000084EF04F08FEF04F0000E0001846F000EFE
:10091000856F800E866F3F0E876FB9EF18F0800EDF
:10092000621909E13F0E631960116111D8A49BEFB0
:1009300004F09DEF04F0A8EF04F0000E0001846FB6
:10094000000E856F800E866F3F0E876FB9EF18F02F
:10095000ABBFB9EF04F0A805000EA959800EAA5943
:100960007F0EAB59D8B0B7EF04F0B9EF04F0CAEF7F
:1009700004F09BBFC8EF04F09805000E9959800E53
:100980009A597F0E9B59D8A0C8EF04F0CAEF04F023
:10099000E6EF04F084C001F085C002F086C003F0E9
:1009A00087C004F088C005F089C006F08AC007F04F
:1009B0008BC008F01AEC1BF001C084F002C085F077
:1009C00003C086F004C087F0B9EF18F0000E506F36
:1009D000000E516F000E526F000E536F63BFF5EFA4
:1009E00004F0F3EF04F0A0EF05F09BBF01EF05F07A
:1009F000800E9A5D4B0E9B59D8A001EF05F003EFD6
:100A000005F00DEF05F0020E506F000E516F000E55
:100A1000526F000E536FA0EF05F09BBF19EF05F06A
:100A2000800E9A5D3F0E9B59D8A019EF05F01BEF81
:100A300005F0A0EF05F0170E4B6E98C14CF099C170
:100A40004DF09AC14EF09BC14FF04B662AEF05F076
:100A500032EF05F04F344F324E324D324C324B2E86
:100A600025EF05F0810E4C240101A06FFF0E4D20F3
:100A7000A16FFF0E4E20A26FFF0E4F20A36FA0515B
:100A800017084B6E98C14CF099C14DF09AC14EF0C9
:100A90009BC14FF04B664FEF05F057EF05F04F3419
:100AA0004F324E324D324C324B2E4AEF05F04CC095
:100AB000ACF14DC0ADF14EC0AEF14FC0AFF1010190
:100AC000A05117084B6EACC14CF0ADC14DF0AEC19A
:100AD0004EF0AFC14FF04B2A73EF05F0D8904C3673
:100AE0004D364E364F364B2E6EEF05F098514C1862
:100AF0000DE199514D180AE19A514E1807E19B51A9
:100B00004F18D8A486EF05F088EF05F0A0EF05F0A8
:100B1000010EAC154B6E000EAD154C6E000EAE15F1
:100B20004D6E000EAF154E6E4B500208506F000E0A
:100B30004C54516F000E4D54526F000E4E54536F73
:100B4000800E9A1909E17F0E9B1998119911D8A46A
:100B5000ACEF05F0AEEF05F01AEF06F0800EAA1923
:100B600009E13F0EAB19A811A911D8A4BAEF05F0FD
:100B7000BCEF05F0C7EF05F0000E0001846F000E1A
:100B8000856F800E866F3F0E876FB9EF18F0ABBF91
:100B9000D6EF05F0A805000EA959800EAA593F0E00
:100BA000AB59D8A0D6EF05F0D8EF05F0F4EF05F07B
:100BB00087BFDFEF05F0DDEF05F0EAEF05F0000E8F
:100BC0000001846F000E856F000E866F000E876F28
:100BD000B9EF18F088C084F089C085F08AC086F02B
:100BE0008BC087F0B9EF18F087BFFBEF05F0F9EF86
:100BF00005F00FEF06F088C001F089C002F08AC04E
:100C000003F08BC004F0BAEC26F001C084F002C0FF
:100C100085F003C086F004C087F0B9EF18F0000E2D
:100C20000001846F000E856F000E866F000E876FC7
:100C3000B9EF18F0800E9A1909E13F0E9B1998112F
:100C40009911D8A426EF06F028EF06F055EF06F02C
:100C500087BF2FEF06F02DEF06F04BEF06F0000EEA
:100C6000326E000E336E800E346E3F0E356E84C0D1
:100C700036F085C037F086C038F087C039F08FEC89
:100C80001FF032C084F033C085F034C086F035C028
:100C900087F0B9EF18F084C084F085C085F086C075
:100CA00086F087C087F0B9EF18F0400E87198411DD
:100CB00085118611D8A45FEF06F061EF06F07DEF95
:100CC00006F084C011F085C012F086C013F087C012
:100CD00014F084C015F085C016F086C017F087C0E8
:100CE00018F07AEC1DF011C084F012C085F013C02A
:100CF00086F014C087F0B9EF18F03F0E8719841101
:100D000085118611D8A487EF06F089EF06F0A4EFCD
:100D100006F063BF8EEF06F090EF06F0A4EF06F04A
:100D200084C03EF085C03FF086C040F087C041F0EF
:100D3000BAEC18F03EC084F03FC085F040C086F0A9
:100D400041C087F0B9EF18F084C001F085C002F00F
:100D500086C003F087C004F0D6EC26F001C070F125
:100D600002C071F103C072F104C073F1800E010181
:100D7000AA190BE17F0EAB19A811A911D8B4C3EFC2
:100D800006F0C5EF06F0DEEF06F0A851A911AA1192
:100D9000AB11D8B4CEEF06F0D0EF06F0DEEF06F0E0
:100DA000800EAA1909E13F0EAB19A811A911D8A408
:100DB000DCEF06F0DEEF06F09DEF07F070C1B4F156
:100DC00071C1B5F172C1B6F173C1B7F187BFEDEF73
:100DD00006F0EBEF06F007EF07F0000E326E000EA4
:100DE000336E800E346E3F0E356EB4C136F0B5C131
:100DF00037F0B6C138F0B7C139F08FEC1FF032C010
:100E0000B4F133C0B5F134C0B6F135C0B7F101016A
:100E100063BF0FEF07F00DEF07F093EF07F0000E41
:100E2000A8254B6E000EA9214C6E800EAA214D6E96
:100E3000C00EAB214E6E50514B104F6E51514C10A5
:100E4000506E52514D10516E53514E10526E4F50C4
:100E5000501051105210D8A430EF07F032EF07F0C5
:100E600076EF07F0000E5F6E210E5E6EB4C12EF0BD
:100E7000B5C12FF0B6C130F0B7C131F0B4C12AF01E
:100E8000B5C12BF0B6C12CF0B7C12DF07AEC26F02D
:100E90002AC032F02BC033F02CC034F02DC035F016
:100EA000B4C12EF0B5C12FF0B6C130F0B7C131F0EA
:100EB000B4C12AF0B5C12BF0B6C12CF0B7C12DF0EA
:100EC0007AEC26F02AC036F02BC037F02CC038F070
:100ED0002DC039F08FEC1FF032C0B4F133C0B5F142
:100EE00034C0B6F135C0B7F193EF07F0500551119A
:100EF00052115311D8A47FEF07F081EF07F093EF61
:100F000007F0B4C101F0B5C102F0B6C103F0B7C13A
:100F100004F0BAEC26F001C0B4F102C0B5F103C090
:100F2000B6F104C0B7F1B4C184F0B5C185F0B6C163
:100F300086F0B7C187F0B9EF18F0000E886F000E89
:100F4000896F800E8A6F3F0E8B6F63BFACEF07F027
:100F5000AAEF07F00EEF08F0505151115211531142
:100F6000D8A4B5EF07F0B7EF07F0FBEF07F0000EDE
:100F70005F6E210E5E6E84C02EF085C02FF086C09D
:100F800030F087C031F084C02AF085C02BF086C0D5
:100F90002CF087C02DF07AEC26F02AC032F02BC05E
:100FA00033F02CC034F02DC035F084C02EF085C055
:100FB0002FF086C030F087C031F084C02AF085C0A1
:100FC0002BF086C02CF087C02DF07AEC26F02AC0DA
:100FD00036F02BC037F02CC038F02DC039F08FEC34
:100FE0001FF032C084F033C085F034C086F035C0C5
:100FF00087F0B9EF18F05005511152115311D8A4D0
:1010000004EF08F006EF08F00EEF08F0000E886F0E
:10101000000E896F800E8A6FBF0E8B6F9BBF1DEF16
:1010200008F09805000E9959000E9A594D0E9B59DB
:10103000D8A01DEF08F01FEF08F0A4EF0AF0ABBF37
:1010400031EF08F0F80EA85DFF0EA9597F0EAA59DE
:101050003F0EAB59D8B02FEF08F031EF08F0A4EFF6
:1010600008F087BF36EF08F038EF08F06EEF08F0B1
:10107000600E156E420E166EA20E176E0D0E186ED5
:1010800088C111F089C112F08AC113F08BC114F02C
:101090007AEC1DF011C0A4F112C0A5F113C0A6F1A5
:1010A00014C0A7F1A4C111F0A5C112F0A6C113F09C
:1010B000A7C114F0600E156E420E166EA20E176ECA
:1010C0000D0E186E7AEC1DF011C084F012C085F080
:1010D00013C086F014C087F0B9EF18F0CA0E156E71
:1010E000F20E166E490E176E710E186E88C111F051
:1010F00089C112F08AC113F08BC114F07AEC1DF093
:1011000011C0A4F112C0A5F113C0A6F114C0A7F13B
:10111000A4C111F0A5C112F0A6C113F0A7C114F02B
:10112000CA0E156EF20E166E490E176E710E186EFF
:101130007AEC1DF011C084F012C085F013C086F067
:1011400014C087F0B9EF18F0ABBFB4EF08F0080E89
:10115000A85D000EA959800EAA593F0EAB59D8A020
:10116000B4EF08F0B6EF08F031EF09F087BFC5EF34
:1011700008F087518611851106E18405D8B0C3EFC8
:1011800008F0C5EF08F0FBEF08F0600E156E420E98
:10119000166EA20E176E0D0E186E88C111F089C161
:1011A00012F08AC113F08BC114F07AEC1DF011C05B
:1011B000A4F112C0A5F113C0A6F114C0A7F1A4C1F7
:1011C00011F0A5C112F0A6C113F0A7C114F0600E72
:1011D000156E420E166EA20E176E0D0E186E7AEC7C
:1011E0001DF011C084F012C085F013C086F014C049
:1011F00087F0B9EF18F0CA0E156EF20E166E490E92
:10120000176E710E186E88C111F089C112F08AC173
:1012100013F08BC114F07AEC1DF011C0A4F112C0D0
:10122000A5F113C0A6F114C0A7F1A4C111F0A5C186
:1012300012F0A6C113F0A7C114F0CA0E156EF20E7B
:10124000166E490E176E710E186E7AEC1DF011C0F5
:1012500084F012C085F013C086F014C087F0B9EF97
:1012600018F070C101F071C102F072C103F073C1D6
:1012700004F0000E056E000E066E800E076EBF0EA7
:10128000086E1AEC1BF001C0B0F102C0B1F103C04E
:10129000B2F104C0B3F1000E156E000E166E800E92
:1012A000176E3E0E186EB0C111F0B1C112F0B2C18E
:1012B00013F0B3C114F07AEC1DF011C02EF012C07F
:1012C0002FF013C030F014C031F0AB0E2A6EAA0E0E
:1012D0002B6EAA0E2C6E3E0E2D6E7AEC26F02AC0D6
:1012E000A4F12BC0A5F12CC0A6F12DC0A7F1B0C16F
:1012F00015F0B1C116F0B2C117F0B3C118F0B0C10A
:1013000011F0B1C112F0B2C113F0B3C114F07AEC14
:101310001DF011C054F112C055F113C056F114C0A4
:1013200057F1B0C115F0B1C116F0B2C117F0B3C199
:1013300018F0A4C111F0A5C112F0A6C113F0A7C105
:1013400014F07AEC1DF011C02EF012C02FF013C073
:1013500030F014C031F0000E2A6E000E2B6E000E1D
:101360002C6E3F0E2D6E7AEC26F02AC048F12BC071
:1013700049F12CC04AF12DC04BF154C111F055C1B7
:1013800012F056C113F057C114F048C115F049C10D
:1013900016F04AC117F04BC118F07AEC1DF011C0DD
:1013A00044F112C045F113C046F114C047F1B0C179
:1013B00011F0B1C112F0B2C113F0B3C114F0000EBC
:1013C000156EAA0E166EB80E176E3F0E186E7AECDA
:1013D0001DF011C074F112C075F113C076F114C084
:1013E00077F1700E156EA50E166EEC0E176E360E9A
:1013F000186EB0C111F0B1C112F0B2C113F0B3C197
:1014000014F07AEC1DF011C02AF012C02BF013C0BA
:101410002CF014C02DF03B0E156EAA0E166EB80EF1
:10142000176E3F0E186E44C111F045C112F046C14F
:1014300013F047C114F07AEC1DF011C02EF012C069
:101440002FF013C030F014C031F07AEC26F02AC02F
:1014500078F12BC079F12CC07AF12DC07BF174C1E9
:1014600001F075C102F076C103F077C104F078C1D4
:1014700005F079C106F07AC107F07BC108F01AECDB
:101480001BF001C080F102C081F103C082F104C0F1
:1014900083F180C1B8F181C1B9F182C1BAF183C1D0
:1014A000BBF1B8C190F1B9C191F1BAC192F1BBC120
:1014B00093F1000E01019015B86FF00E9115B96F00
:1014C000FF0E9215BA6FFF0E9315BB6FB8C180F176
:1014D000B9C181F1BAC182F1BBC183F174C12EF0EF
:1014E00075C12FF076C130F077C131F080C12AF09C
:1014F00081C12BF082C12CF083C12DF07AEC26F053
:101500002AC094F12BC095F12CC096F12DC097F113
:1015100078C12AF079C12BF07AC12CF07BC12DF073
:1015200094C12EF095C12FF096C130F097C131F0E3
:101530007AEC26F02AC01CF12BC01DF12CC01EF144
:101540002DC01FF1ECEF11F0000E7C6F000E7D6FCF
:10155000000E7E6F000E7F6FABBFBAEF0AF0AB518B
:1015600007E1800EAA5DD8B0B8EF0AF0BAEF0AF032
:10157000EDEF0AF070C111F071C112F072C113F0F9
:1015800073C114F0000E156E000E166E800E176EED
:101590004B0E186E7AEC1DF011C070F112C071F193
:1015A00013C072F114C073F1E80E01017C27FF0E25
:1015B0007D23FF0E7E23FF0E7F2370C1B8F171C122
:1015C000B9F172C1BAF173C1BBF1B8C1A8F1B9C127
:1015D000A9F1BAC1AAF1BBC1ABF1170E4B6EA8C1FC
:1015E0004CF0A9C14DF0AAC14EF0ABC14FF04B6613
:1015F000FCEF0AF004EF0BF04F344F324E324D3215
:101600004C324B2EF7EF0AF0810E4C24506EFF0E39
:101610004D20516EFF0E4E20526EFF0E4F20536E26
:10162000505001017C2751507D2352507E2353504E
:101630007F23FF0EA815AC6FFF0EA915AD6F7F0EAF
:10164000AA15AE6F000EAB15AF6F000EAC11A86FF0
:10165000000EAD11A96F800EAE11AA6F3F0EAF1133
:10166000AB6FAFBF43EF0BF0AF510BE1720EAC5D50
:10167000C40EAD591C0EAE59D8B041EF0BF043EF7C
:101680000BF04DEF0BF0000EA06F000EA16F000EDF
:10169000A26F000EA36F7FEF0BF0AFBF5FEF0BF0F9
:1016A000AF510BE1D70EAC5DB30EAD595D0EAE5927
:1016B000D8B05DEF0BF05FEF0BF069EF0BF0010EB0
:1016C000A06F000EA16F000EA26F000EA36F7FEF40
:1016D0000BF0000EA06F000EA16F000EA26F000EA7
:1016E000A36F010E7C27000E7D237E237F23000E37
:1016F000A827000EA923800EAA23FF0EAB23A8C1A2
:10170000B8F1A9C1B9F1AAC1BAF1ABC1BBF1B8C175
:1017100070F1B9C171F1BAC172F1BBC173F170C19D
:101720002AF071C12BF072C12CF073C12DF0A0C151
:101730004BF0A1C14CF0D8904B364C36D8904B367C
:101740004C36690E4B24F66E080E4C20F76E0900DD
:10175000F5CF2EF00900F5CF2FF00900F5CF30F0CE
:101760000A00F5CF31F07AEC26F02AC074F12BC0D4
:1017700075F12CC076F12DC077F1000E326E000E9F
:10178000336E800E346E3F0E356E70C105F071C140
:1017900006F072C107F073C108F0A0C14BF0A1C1FF
:1017A0004CF0D8904B364C36D8904B364C36690EB0
:1017B0004B24F66E080E4C20F76E0900F5CF01F0B1
:1017C0000900F5CF02F00900F5CF03F00A00F5CFCC
:1017D00004F01AEC1BF001C036F002C037F003C071
:1017E00038F004C039F08FEC1FF032C078F133C00C
:1017F00079F134C07AF135C07BF174C111F075C153
:1018000012F076C113F077C114F078C115F079C1E8
:1018100016F07AC117F07BC118F07AEC1DF011C0F8
:101820005CF112C05DF113C05EF114C05FF15CC1E8
:101830006CF15DC16DF15EC16EF15FC16FF16CC1A4
:10184000B8F16DC1B9F16EC1BAF16FC1BBF1B8C1E8
:1018500090F1B9C191F1BAC192F1BBC193F1000EFF
:1018600001019015B86FF00E9115B96FFF0E92152A
:10187000BA6FFF0E9315BB6FB8C16CF1B9C16DF1B2
:10188000BAC16EF1BBC16FF1A8C14BF0A9C14CF058
:10189000AAC14DF0ABC14EF04E344E324D324C32F7
:1018A0004B32000E4B144F6EF00E4C14506EFF0E68
:1018B0004D14516EFF0E4E14526E000E4F10906F6D
:1018C000000E5010916F000E5110926F200E5210AA
:1018D000936FA0C14BF0A1C14CF0A2C14DF0A3C1C8
:1018E0004EF0150ED8904B364C364D364E36E82E0F
:1018F00072EF0CF090514B244F6E91514C20506E72
:1019000092514D20516E93514E20526E000E4F2435
:10191000B86F000E5020B96F400E5120BA6F000E04
:101920005220BB6FB8C168F1B9C169F1BAC16AF19F
:10193000BBC16BF1A0C14BF0A1C14CF0D8904B36AC
:101940004C36D8904B364C36690E4B24F66E080E4A
:101950004C20F76E0900F5CF2EF00900F5CF2FF0DF
:101960000900F5CF30F00A00F5CF31F068C12AF058
:1019700069C12BF06AC12CF06BC12DF07AEC26F016
:101980002AC094F12BC095F12CC096F12DC097F18F
:1019900070C12AF071C12BF072C12CF073C12DF00F
:1019A00094C12EF095C12FF096C130F097C131F05F
:1019B0007AEC26F02AC034F12BC035F12CC036F178
:1019C0002DC037F168C115F069C116F06AC117F072
:1019D0006BC118F06CC111F06DC112F06EC113F043
:1019E0006FC114F07AEC1DF011C02EF012C02FF070
:1019F00013C030F014C031F074C12AF075C12BF05F
:101A000076C12CF077C12DF07AEC26F02AC094F143
:101A10002BC095F12CC096F12DC097F134C115F073
:101A200035C116F036C117F037C118F06CC111F08E
:101A30006DC112F06EC113F06FC114F07AEC1DF09D
:101A400011C02EF012C02FF013C030F014C031F0CE
:101A500094C12AF095C12BF096C12CF097C12DF0BE
:101A60007AEC26F02AC054F12BC055F12CC056F167
:101A70002DC057F154C111F055C112F056C113F0E9
:101A800057C114F078C115F079C116F07AC117F07A
:101A90007BC118F07AEC1DF011C030F112C031F1A9
:101AA00013C032F114C033F15CC111F05DC112F00A
:101AB0005EC113F05FC114F05CC115F05DC116F09A
:101AC0005EC117F05FC118F07AEC1DF011C08CF107
:101AD00012C08DF113C08EF114C08FF1550E056E3A
:101AE000320E066E6C0E076E3E0E086E420E156EBE
:101AF000F10E166E530E176E3E0E186E8CC111F05D
:101B00008DC112F08EC113F08FC114F07AEC1DF06C
:101B100011C001F012C002F013C003F014C004F0B1
:101B20001AEC1BF001C0A4F102C0A5F103C0A6F19C
:101B300004C0A7F1050E056EA30E066E8B0E076E90
:101B40003E0E086E8CC115F08DC116F08EC117F0D7
:101B50008FC118F0A4C111F0A5C112F0A6C113F0F5
:101B6000A7C114F07AEC1DF011C001F012C002F010
:101B700013C003F014C004F01AEC1BF001C054F1C0
:101B800002C055F103C056F104C057F1AB0E056E0B
:101B9000AA0E066EAA0E076E3E0E086E8CC115F0D8
:101BA0008DC116F08EC117F08FC118F054C111F01D
:101BB00055C112F056C113F057C114F07AEC1DF064
:101BC00011C001F012C002F013C003F014C004F001
:101BD0001AEC1BF001C048F102C049F103C04AF100
:101BE00004C04BF1B70E056E6D0E066EDB0E076E70
:101BF0003E0E086E8CC115F08DC116F08EC117F027
:101C00008FC118F048C111F049C112F04AC113F058
:101C10004BC114F07AEC1DF011C001F012C002F0BB
:101C200013C003F014C004F01AEC1BF001C038F12B
:101C300002C039F103C03AF104C03BF19A0E056EBF
:101C4000990E066E190E076E3F0E086E8CC115F0C8
:101C50008DC116F08EC117F08FC118F038C111F088
:101C600039C112F03AC113F03BC114F07AEC1DF007
:101C700011C001F012C002F013C003F014C004F050
:101C80001AEC1BF001C000F102C001F103C002F127
:101C900004C003F18CC115F08DC116F08EC117F090
:101CA0008FC118F08CC111F08DC112F08EC113F0EC
:101CB0008FC114F07AEC1DF011C004F112C005F1CF
:101CC00013C006F114C007F100C111F001C112F0F8
:101CD00002C113F003C114F004C115F005C116F0E0
:101CE00006C117F007C118F07AEC1DF011C04CF1D5
:101CF00012C04DF113C04EF114C04FF130C115F0B8
:101D000031C116F032C117F033C118F05CC105F0D3
:101D10005DC106F05EC107F05FC108F06CC101F063
:101D20006DC102F06EC103F06FC104F01AEC1BF03C
:101D300001C011F002C012F003C013F004C014F08F
:101D40007AEC1DF011C058F112C059F113C05AF1CC
:101D500014C05BF14CC101F04DC102F04EC103F063
:101D60004FC104F058C105F059C106F05AC107F03F
:101D70005BC108F01AEC1BF001C04CF102C04DF140
:101D800003C04EF104C04FF16CC111F06DC112F0EF
:101D90006EC113F06FC114F06CC115F06DC116F077
:101DA0006EC117F06FC118F07AEC1DF011C08CF104
:101DB00012C08DF113C08EF114C08FF1000E056EAC
:101DC000000E066E400E076E400E086E8CC101F0CC
:101DD0008DC102F08EC103F08FC104F01AEC1BF02C
:101DE00001C058F102C059F103C05AF104C05BF1BF
:101DF00058C101F059C102F05AC103F05BC104F0AF
:101E00004CC105F04DC106F04EC107F04FC108F0BE
:101E10001AEC1BF001C068F102C069F103C06AF15D
:101E200004C06BF168C1B8F169C1B9F16AC1BAF116
:101E30006BC1BBF1B8C190F1B9C191F1BAC192F1D6
:101E4000BBC193F1000E01019015B86FF00E911512
:101E5000B96FFF0E9215BA6FFF0E9315BB6FB8C125
:101E600068F1B9C169F1BAC16AF1BBC16BF1000E89
:101E7000056E000E066E400E076EC00E086E68C13D
:101E800001F069C102F06AC103F06BC104F01AEC01
:101E90001BF001C03CF102C03DF103C03EF104C0A3
:101EA0003FF18CC12EF08DC12FF08EC130F08FC16B
:101EB00031F03CC12AF03DC12BF03EC12CF03FC1B6
:101EC0002DF07AEC26F02AC040F12BC041F12CC055
:101ED00042F12DC043F14CC12AF04DC12BF04EC14F
:101EE0002CF04FC12DF040C12EF041C12FF042C166
:101EF00030F043C131F07AEC26F02AC034F12BC027
:101F000035F12CC036F12DC037F16CC111F06DC127
:101F100012F06EC113F06FC114F068C115F069C101
:101F200016F06AC117F06BC118F07AEC1DF011C001
:101F300074F112C075F113C076F114C077F168C165
:101F400015F069C116F06AC117F06BC118F030C105
:101F500011F031C112F032C113F033C114F07AEC38
:101F60001DF011C001F012C002F013C003F014C044
:101F700004F05CC115F05DC116F05EC117F05FC1E1
:101F800018F034C111F035C112F036C113F037C169
:101F900014F07AEC1DF011C005F012C006F013C069
:101FA00007F014C008F01AEC1BF001C078F102C071
:101FB00079F103C07AF104C07BF174C101F075C1FD
:101FC00002F076C103F077C104F078C105F079C161
:101FD00006F07AC107F07BC108F01AEC1BF001C0D3
:101FE0009CF102C09DF103C09EF104C09FF19CC111
:101FF000B8F19DC1B9F19EC1BAF19FC1BBF1B8C1A1
:1020000090F1B9C191F1BAC192F1BBC193F1000E47
:1020100001019015B86FF00E9115B96FFF0E921572
:10202000BA6FFF0E9315BB6FB8C19CF1B9C19DF19A
:10203000BAC19EF1BBC19FF174C12EF075C12FF0E2
:1020400076C130F077C131F09CC12AF09DC12BF0F0
:102050009EC12CF09FC12DF07AEC26F02AC094F19D
:102060002BC095F12CC096F12DC097F178C12AF0C4
:1020700079C12BF07AC12CF07BC12DF094C12EF0E8
:1020800095C12FF096C130F097C131F07AEC26F06F
:102090002AC064F12BC065F12CC066F12DC067F138
:1020A0009CC111F09DC112F09EC113F09FC114F0AC
:1020B000000E156E400E166E760E176E3F0E186EE1
:1020C0007AEC1DF011C020F112C021F113C022F1F1
:1020D00014C023F14F0E156E380E166E760E176E65
:1020E0003F0E186E64C111F065C112F066C113F0A5
:1020F00067C114F07AEC1DF011C005F012C006F0B3
:1021000013C007F014C008F0C60E156E230E166E2D
:10211000F60E176EB80E186E9CC111F09DC112F02C
:102120009EC113F09FC114F07AEC1DF011C001F0B4
:1021300012C002F013C003F014C004F01AEC1BF03C
:1021400001C058F102C059F103C05AF104C05BF15B
:1021500058C101F059C102F05AC103F05BC104F04B
:10216000A0C14BF0A1C14CF0D8904B364C36D89062
:102170004B364C36010E4B24F66E080E4C20F76E93
:102180000900F5CF05F00900F5CF06F00900F5CFFD
:1021900007F00A00F5CF08F01AEC1BF001C024F19B
:1021A00002C025F103C026F104C027F17CC101F073
:1021B0007DC102F07EC103F07FC104F0010E76EC18
:1021C00022F001C0B0F102C0B1F103C0B2F104C00D
:1021D000B3F124C105F025C106F026C107F027C1DF
:1021E00008F020C101F021C102F022C103F023C197
:1021F00004F01AEC1BF001C058F102C059F103C001
:102200005AF104C05BF1A0C14BF0A1C14CF0D890D1
:102210004B364C36D8904B364C36090E4B24F66E66
:10222000080E4C20F76E0900F5CF05F00900F5CF38
:1022300006F00900F5CF07F00A00F5CF08F058C105
:1022400001F059C102F05AC103F05BC104F01AEC6D
:102250001BF001C008F102C009F103C00AF104C07B
:102260000BF108C101F009C102F00AC103F00BC172
:1022700004F0B0C105F0B1C106F0B2C107F0B3C1BE
:1022800008F01AEC1BF001C080F102C081F103C01C
:1022900082F104C083F180C1B8F181C1B9F182C17A
:1022A000BAF183C1BBF1B8C190F1B9C191F1BAC122
:1022B00092F1BBC193F1000E01019015B86FF00EC1
:1022C0009115B96FFF0E9215BA6FFF0E9315BB6F84
:1022D000B8C180F1B9C181F1BAC182F1BBC183F14A
:1022E000B0C12EF0B1C12FF0B2C130F0B3C131F0A6
:1022F00080C12AF081C12BF082C12CF083C12DF066
:102300007AEC26F02AC094F12BC095F12CC096F1FE
:102310002DC097F1A0C14BF0A1C14CF0D8904B3625
:102320004C36D8904B364C36090E4B24F66E080EC0
:102330004C20F76E0900F5CF2EF00900F5CF2FF0F5
:102340000900F5CF30F00A00F5CF31F094C12AF042
:1023500095C12BF096C12CF097C12DF07AEC26F0A8
:102360002AC040F12BC041F12CC042F12DC043F1F5
:1023700020C12EF021C12FF022C130F023C131F055
:1023800040C12AF041C12BF042C12CF043C12DF0D5
:102390007AEC26F02AC00CF12BC00DF12CC00EF106
:1023A0002DC00FF124C12AF025C12BF026C12CF03D
:1023B00027C12DF00CC12EF00DC12FF00EC130F051
:1023C0000FC131F07AEC26F02AC01CF12BC01DF1B0
:1023D0002CC01EF12DC01FF188C0B8F189C0B9F121
:1023E0008AC0BAF18BC0BBF1B8C190F1B9C191F10B
:1023F000BAC192F1BBC193F1000E01019015B86F03
:10240000F00E9115B96FFF0E9215BA6FFF0E93156E
:10241000BB6FB8C128F1B9C129F1BAC12AF1BBC15A
:102420002BF180C115F081C116F082C117F083C174
:1024300018F028C12EF029C12FF02AC130F02BC18D
:1024400031F088C02AF089C02BF08AC02CF08BC0F4
:102450002DF07AEC26F02AC011F02BC012F02CC01F
:1024600013F02DC014F07AEC1DF011C010F112C061
:1024700011F113C012F114C013F110C101F011C118
:1024800002F012C103F013C104F01CC115F01DC10C
:1024900016F01EC117F01FC118F088C011F089C0D6
:1024A00012F08AC013F08BC014F07AEC1DF011C04A
:1024B00005F012C006F013C007F014C008F01AECC3
:1024C0001BF001C064F102C065F103C066F104C0F5
:1024D00067F128C111F029C112F02AC113F02BC1F4
:1024E00014F080C115F081C116F082C117F083C1CC
:1024F00018F07AEC1DF011C09CF112C09DF113C0D0
:102500009EF114C09FF164C101F065C102F066C183
:1025100003F067C104F09CC105F09DC106F09EC1A7
:1025200007F09FC108F01AEC1BF001C0B4F102C023
:10253000B5F103C0B6F104C0B7F1B4C1B8F1B5C18B
:10254000B9F1B6C1BAF1B7C1BBF1B8C1ACF1B9C10B
:10255000ADF1BAC1AEF1BBC1AFF10101AFBFBDEF8B
:1025600012F0AC05000EAD59000EAE59430EAF5936
:10257000D8A0BDEF12F0BFEF12F0F5EF12F0CA0EC7
:10258000156EF20E166E490E176E710E186E88C11A
:1025900011F089C112F08AC113F08BC114F07AECEA
:1025A0001DF011C0A4F112C0A5F113C0A6F114C012
:1025B000A7F1A4C111F0A5C112F0A6C113F0A7C1E3
:1025C00014F0CA0E156EF20E166E490E176E710ECD
:1025D000186E7AEC1DF011C084F012C085F013C0A3
:1025E00086F014C087F0B9EF18F0430EAF19AC11A4
:1025F000AD11AE11D8A4FFEF12F001EF13F074EF9C
:1026000013F09CC12EF09DC12FF09EC130F09FC1F0
:1026100031F0B4C12AF0B5C12BF0B6C12CF0B7C16E
:102620002DF07AEC26F02AC032F02BC033F02CC00B
:1026300034F02DC035F03C0E056EAA0E066E380E35
:10264000076E330E086E64C101F065C102F066C109
:1026500003F067C104F01AEC1BF001C036F002C0B1
:1026600037F003C038F004C039F041EC25F0D8B0A1
:102670003CEF13F03EEF13F036EF14F0CA0E156E78
:10268000F20E166E490E176E710E186E88C111F09B
:1026900089C112F08AC113F08BC114F07AEC1DF0DD
:1026A00011C0A4F112C0A5F113C0A6F114C0A7F186
:1026B000A4C111F0A5C112F0A6C113F0A7C114F076
:1026C000CA0E156EF20E166E490E176E710E186E4A
:1026D0007AEC1DF011C084F012C085F013C086F0B2
:1026E00014C087F0B9EF18F0FF0EAC154B6EFF0E5B
:1026F000AD154C6EFF0EAE154D6E7F0EAF154E6EC6
:102700004EBE8FEF13F04B04000E4C58160E4D5872
:10271000430E4E58D8A08FEF13F091EF13F0C7EF90
:1027200013F0600E156E420E166EA20E176E0D0E91
:10273000186E88C111F089C112F08AC113F08BC1E3
:1027400014F07AEC1DF011C0A4F112C0A5F113C071
:10275000A6F114C0A7F1A4C111F0A5C112F0A6C141
:1027600013F0A7C114F0600E156E420E166EA20E85
:10277000176E0D0E186E7AEC1DF011C084F012C0A9
:1027800085F013C086F014C087F0B9EF18F0160E6C
:10279000AE1909E1C30EAF19AC11AD11D8A4D3EF36
:1027A00013F0D5EF13F036EF14F09CC12EF09DC15D
:1027B0002FF09EC130F09FC131F0B4C12AF0B5C1F5
:1027C0002BF0B6C12CF0B7C12DF07AEC26F02AC060
:1027D00032F02BC033F02CC034F02DC035F064C182
:1027E00036F065C137F066C138F067C139F041ECA9
:1027F00025F0D8A0FEEF13F000EF14F036EF14F040
:10280000600E156E420E166EA20E176E0D0E186E2D
:1028100088C111F089C112F08AC113F08BC114F084
:102820007AEC1DF011C0A4F112C0A5F113C0A6F1FD
:1028300014C0A7F1A4C111F0A5C112F0A6C113F0F4
:10284000A7C114F0600E156E420E166EA20E176E22
:102850000D0E186E7AEC1DF011C084F012C085F0D8
:1028600013C086F014C087F0B9EF18F0FF0E010115
:10287000AC152C6FFF0EAD152D6FFF0EAE152E6F24
:102880007F0EAF152F6F170E4B6E2CC14CF02DC164
:102890004DF02EC14EF02FC14FF04B6652EF14F0A9
:1028A0005AEF14F04F344F324E324D324C324B2EE1
:1028B0004DEF14F0810E4C240101A06FFF0E4D204E
:1028C000A16FFF0E4E20A26FFF0E4F20A36F000ED0
:1028D0007C6F000E7D6F000E7E6F000E7F6F2FBF2E
:1028E0007EEF14F02C05000E2D59000E2E593F0ED0
:1028F0002F59D8A07EEF14F080EF14F060EF15F0A0
:10290000A0C14BF0010E4B26000E4C6E000E4D6E1A
:10291000800E4E6E000E4F6E4B6691EF14F099EFE5
:1029200014F04F344F324E324D324C324B2E8CEF2E
:1029300014F00101AC514C247C6FAD514D207D6FE2
:10294000AE514E207E6FAF514F207F6F810E4B6E88
:10295000FF0E4C6EFF0E4D6EFF0E4E6E170E4F6E3D
:102960007CC150F07DC151F07EC152F07FC153F067
:102970004F66BDEF14F0C5EF14F0533453325232AA
:10298000513250324F2EB8EF14F050504B24010109
:10299000A06F000E4C20A16F000E4D20A26F000E04
:1029A0004E20A36FA0C14BF0FF0E4C6EFF0E4D6E7C
:1029B0007F0E4E6E000E4F6E4B66E1EF14F0E9EFA6
:1029C00014F04F344F324E324D324C324B2EDCEF3E
:1029D00014F04C1C506E4D1C516E4E1C526E4F1C10
:1029E000536E01017C515014B86F7D515114B96F71
:1029F0007E515214BA6F7F515314BB6FB8C1B0F1FE
:102A0000B9C1B1F1BAC1B2F1BBC1B3F1A05117085C
:102A10004B6EFF0E7C154C6EFF0E7D154D6E7F0EBE
:102A20007E154E6E000E7F154F6E000E4C10506ED0
:102A3000000E4D10516E800E4E10526E000E4F1053
:102A4000536E4B6626EF15F02EEF15F053345332CC
:102A50005232513250324B2E21EF15F050C07CF1E2
:102A600051C07DF152C07EF153C07FF10101AFBF73
:102A70003EEF15F03CEF15F046EF15F07F1F7E1F7F
:102A80007D1F7C6D000E7D237E237F239CC12AF059
:102A90009DC12BF09EC12CF09FC12DF0B0C12EF036
:102AA000B1C12FF0B2C130F0B3C131F07AEC26F0F1
:102AB0002AC09CF12BC09DF12CC09EF12DC09FF12E
:102AC00064C101F065C102F066C103F067C104F0A2
:102AD0009CC105F09DC106F09EC107F09FC108F0A2
:102AE0001AEC1BF001C0B0F102C0B1F103C0B2F1A9
:102AF00004C0B3F1B0C1B8F1B1C1B9F1B2C1BAF11A
:102B0000B3C1BBF1B8C190F1B9C191F1BAC192F1B1
:102B1000BBC193F1000E01019015B86F800E9115A5
:102B2000B96FFF0E9215BA6FFF0E9315BB6FB8C148
:102B3000B0F1B9C1B1F1BAC1B2F1BBC1B3F1B0C129
:102B400011F0B1C112F0B2C113F0B3C114F0000E14
:102B5000156E720E166E310E176E3F0E186E7AECF1
:102B60001DF011C074F112C075F113C076F114C0DC
:102B700077F19CC12EF09DC12FF09EC130F09FC116
:102B800031F0B0C12AF0B1C12BF0B2C12CF0B3C109
:102B90002DF07AEC26F02AC094F12BC095F12CC0D0
:102BA00096F12DC097F1180E156E720E166E310E3D
:102BB000176E3F0E186E94C12EF095C12FF096C17E
:102BC00030F097C131F064C12AF065C12BF066C1C5
:102BD0002CF067C12DF07AEC26F02AC011F02BC042
:102BE00012F02CC013F02DC014F07AEC1DF011C0BF
:102BF00014F112C015F113C016F114C017F114C16D
:102C000001F015C102F016C103F017C104F08C0EDB
:102C1000156EBE0E166EBF0E176E350E186EB0C155
:102C200011F0B1C112F0B2C113F0B3C114F07AECDB
:102C30001DF011C005F012C006F013C007F014C05B
:102C400008F01AEC1BF001C078F102C079F103C062
:102C50007AF104C07BF174C101F075C102F076C154
:102C600003F077C104F078C105F079C106F07AC1AC
:102C700007F07BC108F01AEC1BF001C0B4F102C0F0
:102C8000B5F103C0B6F104C0B7F174C12EF075C13F
:102C90002FF076C130F077C131F0B4C12AF0B5C160
:102CA0002BF0B6C12CF0B7C12DF07AEC26F02AC07B
:102CB00094F12BC095F12CC096F12DC097F178C1FD
:102CC0002AF079C12BF07AC12CF07BC12DF094C190
:102CD0002EF095C12FF096C130F097C131F07AEC0B
:102CE00026F02AC044F12BC045F12CC046F12DC07E
:102CF00047F1B4C111F0B5C112F0B6C113F0B7C1BC
:102D000014F0B4C115F0B5C116F0B6C117F0B7C1D3
:102D100018F07AEC1DF011C0B0F112C0B1F113C07F
:102D2000B2F114C0B3F10E0E056EEA0E066EDD0EA2
:102D3000076EB50E086E4C0E156EBB0E166E310E7C
:102D4000176E330E186EB0C111F0B1C112F0B2C1DE
:102D500013F0B3C114F07AEC1DF011C001F012C0F1
:102D600002F013C003F014C004F01AEC1BF001C011
:102D7000A4F102C0A5F103C0A6F104C0A7F1550E4D
:102D8000056EB30E066E8A0E076E380E086EB0C161
:102D900015F0B1C116F0B2C117F0B3C118F0A4C15B
:102DA00011F0A5C112F0A6C113F0A7C114F07AEC7E
:102DB0001DF011C001F012C002F013C003F014C0E6
:102DC00004F01AEC1BF001C054F102C055F103C02D
:102DD00056F104C057F1610E056E0B0E066E360EED
:102DE000076EBB0E086EB0C115F0B1C116F0B2C1CE
:102DF00017F0B3C118F054C111F055C112F056C10B
:102E000013F057C114F07AEC1DF011C001F012C09C
:102E100002F013C003F014C004F01AEC1BF001C060
:102E200048F102C049F103C04AF104C04BF1AB0EB6
:102E3000056EAA0E066E2A0E076E3E0E086EB0C113
:102E400015F0B1C116F0B2C117F0B3C118F048C106
:102E500011F049C112F04AC113F04BC114F07AECE1
:102E60001DF011C001F012C002F013C003F014C035
:102E700004F01AEC1BF001C038F102C039F103C0B4
:102E80003AF104C03BF1B4C12AF0B5C12BF0B6C190
:102E90002CF0B7C12DF0B0C115F0B1C116F0B2C120
:102EA00017F0B3C118F038C111F039C112F03AC1AE
:102EB00013F03BC114F07AEC1DF011C02EF012C0DB
:102EC0002FF013C030F014C031F07AEC26F02AC095
:102ED00080F12BC081F12CC082F12DC083F1000E56
:102EE000056E000E066E000E076EC00E086E80C1E5
:102EF00001F081C102F082C103F083C104F01AEC39
:102F00001BF001C036F002C037F003C038F004C037
:102F100039F080C115F081C116F082C117F083C16C
:102F200018F0B4C111F0B5C112F0B6C113F0B7C1B9
:102F300014F07AEC1DF011C032F012C033F013C05F
:102F400034F014C035F08FEC1FF032C03CF133C0C8
:102F50003DF134C03EF135C03FF144C105F045C1FB
:102F600006F046C107F047C108F044C115F045C15D
:102F700016F046C117F047C118F0B4C111F0B5C141
:102F800012F0B6C113F0B7C114F07AEC1DF011C005
:102F900001F012C002F013C003F014C004F01AECE8
:102FA0001BF001C018F102C019F103C01AF104C0EE
:102FB0001BF13CC12AF03DC12BF03EC12CF03FC1BA
:102FC0002DF018C12EF019C12FF01AC130F01BC11D
:102FD00031F07AEC26F02AC04CF12BC04DF12CC018
:102FE0004EF12DC04FF1B4C12EF0B5C12FF0B6C1D6
:102FF00030F0B7C131F04CC12AF04DC12BF04EC1B9
:103000002CF04FC12DF07AEC26F02AC094F12BC0A1
:1030100095F12CC096F12DC097F1000E2A6E000E8E
:103020002B6E800E2C6E3F0E2D6E94C12EF095C12E
:103030002FF096C130F097C131F07AEC26F02AC01B
:10304000B4F12BC0B5F12CC0B6F12DC0B7F1B4C1AD
:10305000B8F1B5C1B9F1B6C1BAF1B7C1BBF1B8C1E8
:10306000ACF1B9C1ADF1BAC1AEF1BBC1AFF17CC138
:103070004BF07DC14CF07EC14DF07FC14EF0170E7C
:10308000D8904B364C364D364E36E82E40EF18F081
:103090004B500101AC274C50AD234D50AE234E5048
:1030A000AF23170E4B6EACC14CF0ADC14DF0AEC1AD
:1030B0004EF0AFC14FF04B6660EF18F068EF18F0BC
:1030C0004F344F324E324D324C324B2E5BEF18F0B4
:1030D0004FBE77EF18F04F504E104D1006E14C04E4
:1030E000D8B075EF18F077EF18F08FEF18F0B4C183
:1030F0002AF0B5C12BF0B6C12CF0B7C12DF07CC1C0
:103100002EF07DC12FF05CEC21F02AC0B4F12BC071
:10311000B5F12CC0B6F12DC0B7F19FEF18F0ACC1DE
:10312000B8F1ADC1B9F1AEC1BAF1AFC1BBF1B8C12F
:10313000B4F1B9C1B5F1BAC1B6F1BBC1B7F188C13B
:1031400011F089C112F08AC113F08BC114F0B4C11F
:1031500015F0B5C116F0B6C117F0B7C118F07AEC8A
:103160001DF011C084F012C085F013C086F014C0A9
:1031700087F012003EC068F03FC069F040C06AF0BE
:1031800041C06BF068C080F069C081F06AC082F015
:103190006BC083F0000E00018015426E000E811599
:1031A000436E800E8215446E7F0E8315456E800E31
:1031B000441809E17F0E451842104310D8A4E3EFEC
:1031C00018F0E5EF18F013EF19F03EC015F03FC00E
:1031D00016F040C017F041C018F03EC011F03FC0DB
:1031E00012F040C013F041C014F07AEC1DF011C091
:1031F00001F012C002F013C003F014C004F03EC08E
:1032000005F03FC006F040C007F041C008F01AECDE
:103210001BF001C03EF002C03FF003C040F004C00C
:1032200041F019EF1BF083BF22EF19F08351821197
:10323000811106E18005D8B020EF19F022EF19F0D6
:103240005EEF19F0FF0E8015426EFF0E8115436E82
:10325000FF0E8215446E7F0E8315456E425043105B
:1032600044104510D8A437EF19F039EF19F043EFA7
:1032700019F03EC03EF03FC03FF040C040F041C0BA
:1032800041F019EF1BF083BF4AEF19F048EF19F036
:103290005EEF19F0000E5F6E210E5E6E7D0E016E08
:1032A000080E026E03EC27F001C03EF002C03FF0B2
:1032B00003C040F004C041F019EF1BF0170E426E3E
:1032C00080C043F081C044F082C045F083C046F026
:1032D00042666DEF19F075EF19F04634463245320B
:1032E00044324332422E68EF19F043C078F044C0B4
:1032F00079F045C07AF046C07BF000017851791131
:103300007A117B11D8A487EF19F089EF19F0B9EF82
:1033100019F0000E646F000E656F000E666F000EF0
:10332000676F9EEF19F0D8908037813782378337E7
:10333000010E6427000E65236623672382AFA3EF87
:1033400019F0A5EF19F093EF19F0FF0E6425426E06
:10335000FF0E6521436EFF0E6621446EFF0E67214E
:10336000456E4250785F4350795B44507A5B4550DC
:103370007B5B810E7827FF0E7923FF0E7A23FF0EE9
:103380007B23FF0E8015426EFF0E8115436E7F0E6C
:103390008215446E000E8315456E000E4210806F3C
:1033A000000E4310816F800E4410826F000E451096
:1033B000836F78A1DEEF19F0E0EF19F0E8EF19F074
:1033C000805180278151812382518223835183231D
:1033D0007B357B337A337933783380518027815141
:1033E00081238251822383518323000E606F000E5C
:1033F000616F000E626F000E636F60C06CF061C0A1
:103400006DF062C06EF063C06FF0000E7C6F000E56
:103410007D6F000E7E6F010E7F6F57EF1AF06051C7
:103420007C25706F61517D21716F62517E21726FB9
:1034300063517F21736F7051805D71518159725159
:1034400082598351800A426E7351800A4258D8A033
:103450002CEF1AF02EEF1AF04AEF1AF070517C257B
:10346000606F71517D21616F72517E21626F735166
:103470007F21636F7051805F7151815B7251825BFC
:103480007351835B7C516C277D516D237E516E237C
:103490007F516F2380518027815181238251822364
:1034A00083518323D8907F337E337D337C337C51AB
:1034B0007D117E117F11D8A460EF1AF062EF1AF02F
:1034C0000FEF1AF08051811182118311D8B46BEF84
:1034D0001AF06DEF1AF0CEEF1AF0000E746F000EB6
:1034E000756F800E766F3F0E776F74C032F075C0C7
:1034F00033F076C034F077C035F0000E366E000E33
:10350000376E800E386E3F0E396E41EC25F0D8A034
:103510008CEF1AF08EEF1AF0CEEF1AF0000E0001C9
:10352000746F000E756F800E766F3F0E776F000E12
:10353000326E000E336E800E346E3F0E356E74C0E8
:1035400036F075C037F076C038F077C039F041EC0E
:1035500025F0D8B0AEEF1AF0B0EF1AF0B9EF1AF0CC
:10356000020E00016C27000E6D236E236F23CEEF39
:103570001AF0010E00016C15426E000E6D15436EBF
:10358000000E6E15446E000E6F15456E42506C278E
:1035900043506D2344506E2345506F236CC042F05E
:1035A0006DC043F06EC044F06FC045F04534453205
:1035B000443243324232000E42240001806F000E3A
:1035C0004320816F000E4420826F3F0E4520836FA1
:1035D00078C042F079C043F07AC044F07BC045F037
:1035E000170ED8904236433644364536E82EF1EF72
:1035F0001AF0425080274350812344508223455083
:10360000832380C068F081C069F082C06AF083C003
:103610006BF068C074F069C075F06AC076F06BC07A
:1036200077F074C03EF075C03FF076C040F077C0D0
:1036300041F012000450800B0D6E045004240F6EF4
:1036400003AE25EF1BF027EF1BF028EF1BF00F80D8
:103650000F50D8B42EEF1BF030EF1BF045EF1BF0EE
:103660000F28D8A436EF1BF038EF1BF040EF1BF00B
:10367000000E016E000E026E000E036E000E046E50
:10368000038E000E046E4DEF1BF0000E016E000E57
:10369000026E000E036E000E046E0850800B0E6E5C
:1036A0000D500E18D8B457EF1BF059EF1BF05AEF1E
:1036B0001BF00D8C085008240E6E07AE62EF1BF055
:1036C00064EF1BF065EF1BF00E800E50D8B46BEF6B
:1036D0001BF06DEF1BF082EF1BF00E28D8A473EFE8
:1036E0001BF075EF1BF07DEF1BF0000E056E000E5A
:1036F000066E000E076E000E086E078E000E086E36
:103700008AEF1BF0000E056E000E066E000E076EAF
:10371000000E086E0F500E5CD8B091EF1BF093EFC7
:103720001BF0BAEF1BF00DAC98EF1BF09AEF1BF0FB
:103730009CEF1BF0800E0D1A0FC010F00EC00FF0A2
:1037400010C00EF001C010F005C001F010C005F06F
:1037500002C010F006C002F010C006F003C010F066
:1037600007C003F010C007F004C010F008C004F058
:1037700010C008F0000E106E0F500EC009F00A6A5B
:10378000095E000E0A5A0ABECFEF1BF00A5009E18B
:103790001A0E095CD8A0CFEF1BF0D1EF1BF008EF99
:1037A0001CF00150021003100410D8A4DAEF1BF033
:1037B000DDEF1BF0010EDEEF1BF0000E106E000EB1
:1037C000016E000E026E000E036E000E046E0EC03F
:1037D0000FF011EF1CF010A0F0EF1BF0F2EF1BF058
:1037E000F8EF1BF0D89010300109106EFAEF1BF0C3
:1037F000D890103201A0FFEF1BF001EF1CF002EF98
:103800001CF0108E043404320332023201320F2ACB
:103810000E500F5CD8A00FEF1CF011EF1CF0EBEF77
:103820001BF00DBC16EF1CF018EF1CF058EF1CF04D
:103830000F50D8A41EEF1CF020EF1CF02AEF1CF054
:10384000000E016E000E026E000E036E000E046E7E
:1038500079EF1DF005500126065002220750032281
:103860000850042204A037EF1CF039EF1CF0E5EFFC
:103870001CF010A03EEF1CF040EF1CF046EF1CF0D7
:10388000D89010300109106E48EF1CF0D89010321B
:1038900001A04DEF1CF04FEF1CF050EF1CF0108E0C
:1038A000043404320332023201320F2AE5EF1CF0F5
:1038B0000550015C06500258075003580450800A16
:1038C000096E0850800A0958D8B069EF1CF06BEFF8
:1038D0001CF096EF1CF00150055C096E0250065872
:1038E0000A6E035007580B6E045008580C6EFF0EFA
:1038F0000924016EFF0E0A20026EFF0E0B20036EDC
:10390000FF0E0C20046E800E0D1A106C1050D8A4FF
:103910008CEF1CF08EEF1CF09EEF1CF0010E0126C8
:10392000000E0222032204229EEF1CF00550015ECD
:103930000650025A0750035A0850045A0150021008
:1039400003100410D8A4A7EF1CF0A9EF1CF0DEEFC1
:103950001CF01050D8A4AFEF1CF0B1EF1CF0DEEF5C
:103960001CF0000E016E000E026E000E036E000EC3
:10397000046E79EF1DF0D890013602360336043616
:1039800010AEC5EF1CF0C7EF1CF0C8EF1CF00180B3
:1039900010A0CDEF1CF0CFEF1CF0D3EF1CF0D880BF
:1039A0001036D5EF1CF0D89010360F50D8B4DBEF9E
:1039B0001CF0DDEF1CF0DEEF1CF00F0603AEE3EFB2
:1039C0001CF0E5EF1CF0BBEF1CF0000E0E6E10AE0D
:1039D000ECEF1CF0EEEF1CF006EF1DF010C009F04C
:1039E0007F0E0916D8B4F7EF1CF0F9EF1CF0FDEFCD
:1039F0001CF0010E0E6E06EF1DF001A002EF1DF08F
:103A000004EF1DF006EF1DF0F9EF1CF00E50D8B4D6
:103A10000CEF1DF00EEF1DF039EF1DF0010E012629
:103A2000000E02220322042204A019EF1DF01BEF56
:103A30001DF039EF1DF001C009F002C00AF003C00B
:103A40000BF004C00CF00C340C320B320A32093289
:103A500009C001F00AC002F00BC003F00CC004F072
:103A60000F28D8B436EF1DF038EF1DF039EF1DF0F8
:103A70000F2A0F28D8B43FEF1DF041EF1DF049EF9A
:103A80001DF00F50D8A447EF1DF049EF1DF05BEF7C
:103A90001DF0000E016E000E026E000E036E000E91
:103AA000046E0F50D8A457EF1DF059EF1DF05BEFD7
:103AB0001DF0000E0D6E0FA060EF1DF062EF1DF007
:103AC00065EF1DF0038E66EF1DF0039ED8900F305A
:103AD000046E0DAE6EEF1DF070EF1DF071EF1DF076
:103AE000048E01C001F002C002F003C003F004C064
:103AF00004F012001450800B1D6E14501424236E19
:103B000013AE85EF1DF087EF1DF088EF1DF02380C9
:103B10002350D8B48EEF1DF090EF1DF0A3EF1DF0F1
:103B20002328D8A496EF1DF098EF1DF0A0EF1DF00C
:103B3000000E116E000E126E000E136E000E146E4B
:103B4000138EABEF1DF0000E116E000E126E000E04
:103B5000136E000E146E1850800B1D1A1850182486
:103B6000226E17AEB6EF1DF0B8EF1DF0B9EF1DF0E5
:103B700022802250D8B4BFEF1DF0C1EF1DF0D4EF6A
:103B80001DF02228D8A4C7EF1DF0C9EF1DF0D1EF1A
:103B90001DF0000E156E000E166E000E176E000E54
:103BA000186E178EDCEF1DF0000E156E000E166EEF
:103BB000000E176E000E186E2250D8B4E2EF1DF002
:103BC000E4EF1DF0ECEF1DF02350D8A4EAEF1DF058
:103BD000ECEF1DF0F6EF1DF0000E116E000E126EF0
:103BE000000E136E000E146E8EEF1FF017501102B0
:103BF000F3CF28F0F4CF29F028501E6E1F6A206AF8
:103C0000216A2950246E256A266A276A16501202F4
:103C1000F3CF28F0F4CF29F028501E26000E1F22E3
:103C20002022212229502426000E25222622272266
:103C300015501302F3CF28F0F4CF29F028501E2698
:103C4000000E1F222022212229502426000E252288
:103C50002622272220C021F01FC020F01EC01FF006
:103C60001E6A15501202F3CF28F0F4CF29F0285025
:103C70001E2629501F22000E2022000E212216503F
:103C80001102F3CF28F0F4CF29F028501E26295036
:103C90001F22000E2022000E212220C021F01FC072
:103CA00020F01EC01FF01E6A15501102F3CF28F03D
:103CB000F4CF29F028501E2629501F22000E202262
:103CC000000E212217501202F3CF28F0F4CF29F072
:103CD0002850242629502522000E2622000E2722B5
:103CE00016501302F3CF28F0F4CF29F028502426E1
:103CF00029502522000E2622000E272217501302DB
:103D0000F3CF28F0F4CF29F02850196E29501A6EFD
:103D10001B6A1C6A1BC01CF01AC01BF019C01AF0E9
:103D2000196A195024261A5025221B5026221C508D
:103D300027221EC019F01FC01AF020C01BF021C09E
:103D40001CF0190EA9EF1EF0D8901C321B321A324B
:103D50001932E82EA4EF1EF0195024261A502522FD
:103D60001B5026221C50272220C021F01FC020F00B
:103D70001EC01FF01E6A225023C019F01A6A1926AD
:103D8000000E1A22820E1924286EFF0E1A20296EA8
:103D9000DFEF1EF0D890243625362636273621AEA2
:103DA000D4EF1EF0D6EF1EF0D7EF1EF02480D8908F
:103DB0001E361F36203621362806D8A0290626AE04
:103DC000E4EF1EF0E6EF1EF0CAEF1EF0000E226ECA
:103DD00021AEEDEF1EF0EFEF1EF013EF1FF0FF0E20
:103DE0001E14196EFF0E1F141A6EFF0E20141B6E88
:103DF0007F0E21141C6E19501A101B101C10D8B401
:103E000004EF1FF006EF1FF00AEF1FF0010E226E05
:103E100013EF1FF024A00FEF1FF011EF1FF013EFAF
:103E20001FF006EF1FF02250D8B419EF1FF01BEF60
:103E30001FF03FEF1FF0010E2426000E2522262240
:103E4000272227A026EF1FF028EF1FF03FEF1FF0DB
:103E500024C019F025C01AF026C01BF027C01CF0A2
:103E60001C341C321B321A32193219C024F01AC009
:103E700025F01BC026F01CC027F0284A292A29BE9D
:103E80004AEF1FF0295008E12828D8A04AEF1FF078
:103E90004CEF1FF056EF1FF0000E246E000E256E43
:103EA000800E266E7F0E276E84EF1FF029BE63EF13
:103EB0001FF0295006E12804D8B061EF1FF063EF2E
:103EC0001FF06FEF1FF0000E246E000E256E000E27
:103ED000266E000E276E000E1D6E84EF1FF028C0A8
:103EE00023F0FF0E2416FF0E25167F0E2616000E59
:103EF000271623A07EEF1FF080EF1FF081EF1FF049
:103F0000268ED8902330276E1D50271224C011F022
:103F100025C012F026C013F027C014F0120035504F
:103F2000800B426E35503524496E34AE9AEF1FF047
:103F30009CEF1FF09DEF1FF049804950D8B4A3EFCC
:103F40001FF0A5EF1FF0BAEF1FF04928D8A4ABEF80
:103F50001FF0ADEF1FF0B5EF1FF0000E326E000E38
:103F6000336E000E346E000E356E348E000E356EDC
:103F7000C2EF1FF0000E326E000E336E000E346E74
:103F8000000E356E3950800B421A395039244A6E72
:103F900038AECDEF1FF0CFEF1FF0D0EF1FF04A800B
:103FA0004A50D8B4D6EF1FF0D8EF1FF0EDEF1FF056
:103FB0004A28D8A4DEEF1FF0E0EF1FF0E8EF1FF073
:103FC000000E366E000E376E000E386E000E396E23
:103FD000388E000E396EF5EF1FF0000E366E000EB3
:103FE000376E000E386E000E396E365037103810AE
:103FF0003910D8A4FEEF1FF000EF20F018EF20F0EA
:10400000000E326E000E336E000E346E000E356EF2
:10401000800E34127F0E35124250351232C032F00B
:1040200033C033F034C034F035C035F05BEF21F0ED
:104030004950D8A41EEF20F020EF20F02AEF20F006
:10404000000E326E000E336E000E346E000E356EB2
:104050005BEF21F04A5049C03AF03B6A3A5E000EED
:104060003B5A7F0E3A24436E000E3B20446E32C012
:104070003EF033C03FF034C040F035C041F0000E98
:10408000326E000E336E000E346E000E356E000E72
:10409000456E000E466E000E476E000E486E000E16
:1040A0004A6E8BEF20F04A50D8B459EF20F05BEF06
:1040B00020F072EF20F0D8903E363F364036413641
:1040C000D890323633363436353648AE6AEF20F083
:1040D0006CEF20F06DEF20F03280D89045364636F8
:1040E0004736483636503E5C37503F583850405877
:1040F00039504158D8A07FEF20F081EF20F08AEFAF
:1041000020F0488C36503E5E37503F5A3850405A67
:104110003950415A4A2A190E4A6491EF20F093EF20
:1041200020F053EF20F03E503F1040104110D8B423
:104130009CEF20F09EEF20F0B6EF20F04580B6EF28
:1041400020F0D890323633363436353648AEABEFC1
:1041500020F0ADEF20F0AEEF20F03280D890453661
:104160004636473648364306D8A0440634AEBBEF41
:1041700020F0BDEF20F0A1EF20F0000E4A6E48AE17
:10418000C4EF20F0C6EF20F0EAEF20F0FF0E451458
:104190003A6EFF0E46143B6EFF0E47143C6E7F0EC8
:1041A00048143D6E3A503B103C103D10D8B4DBEF44
:1041B00020F0DDEF20F0E1EF20F0010E4A6EEAEF93
:1041C00020F032A0E6EF20F0E8EF20F0EAEF20F058
:1041D000DDEF20F04A50D8B4F0EF20F0F2EF20F0FD
:1041E00016EF21F0010E3226000E33223422352242
:1041F00035A0FDEF20F0FFEF20F016EF21F032C0E8
:104200003AF033C03BF034C03CF035C03DF03D34B3
:104210003D323C323B323A323AC032F03BC033F0AE
:104220003CC034F03DC035F0434A442A44BE21EF3F
:1042300021F0445008E14328D8A021EF21F023EFDA
:1042400021F02EEF21F0000E446E4368000E326E16
:10425000000E336E000E346E000E356E44BE3BEF22
:1042600021F0445006E14304D8B039EF21F03BEF90
:1042700021F049EF21F0000E446E000E436E000E57
:10428000326E000E336E000E346E000E356E000E70
:10429000426E43C049F049A050EF21F052EF21F0A7
:1042A00055EF21F0348E56EF21F0349ED8904930EE
:1042B000356E0CEF20F012002AC038F02BC039F018
:1042C0002CC03AF02DC03BF02FBE70EF21F02F50E4
:1042D00009E1800E2E5CD8A070EF21F072EF21F082
:1042E000D0EF21F038C011F039C012F03AC013F00D
:1042F0003BC014F0000E156E000E166E000E176E09
:104300007F0E186E7AEC1DF011C038F012C039F033
:1043100013C03AF014C03BF0810E2E26FF0E2F2260
:104320002FBE9CEF21F02F5009E1800E2E5CD8A00B
:104330009CEF21F09EEF21F03AEF22F038C011F00F
:1043400039C012F03AC013F03BC014F0000E156EE5
:10435000000E166E000E176E7F0E186E7AEC1DF0B2
:1043600011C038F012C039F013C03AF014C03BF05D
:10437000810E2E26FF0E2F222FBEC8EF21F02F50C8
:1043800009E1800E2E5CD8A0C8EF21F0CAEF21F021
:104390003AEF22F0000E2F6E7F0E2E6E3AEF22F0D3
:1043A0002FAEDCEF21F0820E2E5CFF0E2F58D8B01E
:1043B000DCEF21F0DEEF21F03AEF22F038C011F00F
:1043C00039C012F03AC013F03BC014F0000E156E65
:1043D000000E166E800E176E0C0E186E7AEC1DF025
:1043E00011C038F012C039F013C03AF014C03BF0DD
:1043F000660E2E26000E2F222FAE08EF22F0820E20
:104400002E5CFF0E2F58D8B008EF22F00AEF22F0F2
:104410003AEF22F038C011F039C012F03AC013F070
:104420003BC014F0000E156E000E166E800E176E57
:104430000C0E186E7AEC1DF011C038F012C039F075
:1044400013C03AF014C03BF0660E2E26000E2F2249
:104450002FAE34EF22F0820E2E5CFF0E2F58D8B014
:1044600034EF22F036EF22F03AEF22F0FF0E2F6EFB
:10447000820E2E6E7F0E2E24306E000E2F20316E97
:10448000326A336A170ED8903036313632363336C8
:10449000E82E43EF22F030C034F031C035F032C0A6
:1044A00036F033C037F034C011F035C012F036C0EA
:1044B00013F037C014F038C015F039C016F03AC008
:1044C00017F03BC018F07AEC1DF011C02AF012C0B2
:1044D0002BF013C02CF014C02DF02AC02AF02BC0F2
:1044E0002BF02CC02CF02DC02DF01200096E0950BD
:1044F000D8B47DEF22F07FEF22F0A1EF22F004BECE
:1045000086EF22F084EF22F0A1EF22F001C005F047
:1045100002C006F003C007F004C008F0051E061E26
:10452000071E081E052A000E06220722082205C0C3
:104530000BF006C00CF007C00DF008C00EF0A9EF9C
:1045400022F001C00BF002C00CF003C00DF004C05B
:104550000EF00150021003100410D8A4B2EF22F0A4
:10456000B4EF22F0BEEF22F0000E016E000E026EDC
:10457000000E036E000E046E4FEF23F0960E0A6ECF
:10458000C8EF22F00A2AD8900E320D320C320B32CC
:10459000000E0B14056E000E0C14066E000E0D14AA
:1045A000076EFE0E0E14086E055006100710081058
:1045B000D8A4DDEF22F0DFEF22F0C2EF22F0EDEF22
:1045C00022F00A2A010E0B26000E0C220D220E22CA
:1045D000D8900E320D320C320B32000E0B14056ED9
:1045E000000E0C14066E000E0D14076EFF0E0E1456
:1045F000086E0550061007100810D8A402EF23F02B
:1046000004EF23F0E1EF22F00CEF23F00A06D8903C
:104610000B360C360D360E360DBE11EF23F013EFB0
:1046200023F01BEF23F0020E0A6019EF23F01BEFBB
:1046300023F006EF23F00AB020EF23F022EF23F05F
:1046400023EF23F00D9ED8900A320AC005F0066AC7
:10465000076A086A05C008F0076A066A056A055015
:104660000B1206500C1207500D1208500E12095072
:10467000D8B43DEF23F03FEF23F047EF23F004BE23
:1046800046EF23F044EF23F047EF23F00E8E0BC0EC
:1046900001F00CC002F00DC003F00EC004F01200D7
:1046A000700E8A6E68EF23F00F0E0001A66F85EF83
:1046B00023F0000E0001A66F85EF23F00E0E00011F
:1046C000A66F85EF23F00D0E0001A66F85EF23F096
:1046D0008150016E026A0250000AD8B472EF23F0D2
:1046E00085EF23F00150770AD8B463EF23F00C0A6A
:1046F000D8B45EEF23F0060AD8B459EF23F0030ACA
:10470000D8B454EF23F085EF23F0B00E8A6E9DEFFE
:1047100023F0070E0001A66FBAEF23F0080E000188
:10472000A66FBAEF23F0090E0001A66FBAEF23F0CF
:104730000C0E0001A66FBAEF23F08150016E026AE1
:104740000250000AD8B4A7EF23F0BAEF23F00150CB
:10475000B70AD8B498EF23F00C0AD8B493EF23F03B
:10476000060AD8B48EEF23F0030AD8B489EF23F0F9
:10477000BAEF23F0D00E8A6ED2EF23F0040E0001C0
:10478000A66FEFEF23F0050E0001A66FEFEF23F009
:10479000060E0001A66FEFEF23F00B0E0001A66FCF
:1047A000EFEF23F08150016E026A0250000AD8B484
:1047B000DCEF23F0EFEF23F00150D70AD8B4CDEFB0
:1047C00023F00C0AD8B4C8EF23F0060AD8B4C3EF1C
:1047D00023F0030AD8B4BEEF23F0EFEF23F0E00E8E
:1047E0008A6E07EF24F0010E0001A66F24EF24F07B
:1047F000020E0001A66F24EF24F0030E0001A66F45
:1048000024EF24F00A0E0001A66F24EF24F081505B
:10481000016E026A0250000AD8B411EF24F024EFAE
:1048200024F00150E70AD8B402EF24F00C0AD8B4FF
:10483000FDEF23F0060AD8B4F8EF23F0030AD8B44A
:10484000F3EF23F024EF24F0000E8A6E1200036EC3
:104850006EEF24F03F0E046EBBEF24F0060E046EE4
:10486000BBEF24F05B0E046EBBEF24F04F0E046E22
:10487000BBEF24F0660E046EBBEF24F06D0E046EE9
:10488000BBEF24F07D0E046EBBEF24F0070E046E28
:10489000BBEF24F07F0E046EBBEF24F0670E046EB6
:1048A000BBEF24F0770E046EBBEF24F07C0E046E99
:1048B000BBEF24F0580E046EBBEF24F05E0E046EC6
:1048C000BBEF24F0790E046EBBEF24F0710E046E82
:1048D000BBEF24F0000E046EBBEF24F00350016E1A
:1048E000026A0250000AD8B478EF24F06AEF24F08C
:1048F0000150000AD8B42AEF24F0010AD8B42EEFF0
:1049000024F0030AD8B432EF24F0010AD8B436EF09
:1049100024F0070AD8B43AEF24F0010AD8B43EEFE5
:1049200024F0030AD8B442EF24F0010AD8B446EFC9
:1049300024F00F0AD8B44AEF24F0010AD8B44EEF9D
:1049400024F0030AD8B452EF24F0010AD8B456EF89
:1049500024F0070AD8B45AEF24F0010AD8B45EEF65
:1049600024F0030AD8B462EF24F0010AD8B466EF49
:1049700024F06AEF24F00450120000018E358F35C8
:10498000596E5950D8A4C7EF24F0C9EF24F0D3EFE3
:1049900024F0000E8C6F000E8D6F000E8E6F000ED7
:1049A0008F6F40EF25F08CC054F08DC055F08EC055
:1049B00056F08FC057F0200EE3EF24F0D890573216
:1049C000563255325432E82EDEEF24F05450586EF1
:1049D0008E8FFF0E8C17FF0E8D17FF0E8E17000E99
:1049E0008F17960E595E59BEFAEF24F0F8EF24F0B7
:1049F00010EF25F05950800A970FD8B002EF25F03C
:104A000004EF25F006EF25F0C9EF24F0D8908F339E
:104A10008E338D338C33593E06EF25F028EF25F089
:104A20001F0E596416EF25F018EF25F020EF25F042
:104A3000C9EF24F0D8908C378D378E378F375906D1
:104A40005950D8A426EF25F028EF25F01AEF25F0CD
:104A50005850D8B42EEF25F030EF25F038EF25F080
:104A60008F1F8E1F8D1F8C6D000E8D238E238F2325
:104A70008CC08CF08DC08DF08EC08EF08FC08FF00A
:104A80001200000E32143A6E000E33143B6E800E8C
:104A900034143C6E7F0E35143D6E3A503B103C1082
:104AA0003D10D8A456EF25F058EF25F060EF25F023
:104AB000000E326E000E336E000E346E000E356E38
:104AC000000E36143A6E000E37143B6E800E38140A
:104AD0003C6E7F0E39143D6E3A503B103C103D1039
:104AE000D8A475EF25F077EF25F07FEF25F0000EC5
:104AF000366E000E376E000E386E000E396E35AE13
:104B000084EF25F086EF25F08FEF25F0326C331E11
:104B1000D8B0332A341ED8B0342A800E355639AE78
:104B200094EF25F096EF25F09FEF25F0366C371EB9
:104B3000D8B0372A381ED8B0382A800E3956000E21
:104B4000321A000E331A000E341A800E351A000E77
:104B5000361A000E371A000E381A800E391A3650DF
:104B6000325C375033583850345839503558D8B0F3
:104B7000BCEF25F0BEEF25F0C1EF25F0D890C2EFD5
:104B800025F0D8801200000E00019D6F9D51016E2E
:104B9000026A036A046A000E76EC22F001C094F007
:104BA00002C095F003C096F004C097F094C088F05E
:104BB00095C089F096C08AF097C08BF0000E000176
:104BC000846F000E856F000E866F400E876F40EC7D
:104BD00004F084C08CF085C08DF086C08EF087C054
:104BE0008FF0BDEC24F08CC098F08DC099F00001DE
:104BF000981D5A6E991D5B6E0F0E5A149A6F9B6B1F
:104C00009AC089FF9D51080DF35090C05AF091C091
:104C10005BF092C05CF093C05DF0E82A15EF26F0DF
:104C2000D8905D325C325B325A32E82E10EF26F0BB
:104C30005A509C6F9C5127EC24F08C6E0D0E5A6ECE
:104C4000FC0EE82EFED75A2EFCD700019D2B030E3A
:104C50009D652DEF26F02FEF26F0C6EF25F0120010
:104C6000F0EC26F05FEF26F050EC23F0A7C09FF0A9
:104C7000A8C0A0F0A9C0A1F000019E6B9EC0A7F043
:104C80009FC0A8F0A0C0A9F0A1C0AAF0A651A72576
:104C9000A76F000EA821A86F000EA921A96F000E12
:104CA000AA21AA6F060E00019F6F130E9E6FAD0E14
:104CB000E82EFED79E2FFCD79F2FFAD700D0815029
:104CC000FF0A00019E6F0F0E9E17D8A46AEF26F010
:104CD0006CEF26F034EF26F0A7C090F0A8C091F05A
:104CE000A9C092F0AAC093F0C3EC25F05FEF26F0C4
:104CF00000EF00F0000E2E1A000E2F1A000E301AD0
:104D0000800E311A2AC001F02BC002F02CC003F033
:104D10002DC004F02EC005F02FC006F030C007F003
:104D200031C008F01AEC1BF001C02AF002C02BF0D1
:104D300003C02CF004C02DF01200280EF66E4E0EAB
:104D4000F76E000EF86E00EEA7F010EE04F009000A
:104D5000F5CFEEFFE550E150FAE10001A66BA56B3F
:104D6000A46BA36BA26B5F6A5E6A000EF86E000113
:104D700030EF26F00150021003100410D8B4C3EF36
:104D800026F0C5EF26F0CDEF26F0000E011A000E3A
:104D9000021A000E031A800E041A01C001F002C0AC
:104DA00002F003C003F004C004F01200A2C005F03A
:104DB000A3C006F0A4C007F0A5C008F001C005F02C
:104DC00002C006F003C007F004C008F0089E05C04A
:104DD00001F006C002F007C003F008C004F01200A2
:104DE000000E0F015C6F0F0E936E0F0E856EF19E1D
:104DF000000E5B6F000E926E000E5E6F000E956EE1
:104E0000740ED36E1200FF0E056EFF0E066EFF0EBF
:104E1000076E7F0E086E05C001F006C002F007C0E5
:0C4E200003F008C004F012001010101085
:020000040020DA
:08000000FFFFFFFFFFFFFFFF00
:020000040030CA
:0E00000000285F3CFFD385FF0FC00FE00F40CC
:00000001FF
