:04000000FBEF07F01B
:10080000002D57726F6E672046756E6374696F6E48
:10081000002D57726F6E6720496E707574002D0041
:0108200000D7
:10082200740ED36E31EC07F010EC08F09AEC07F07E
:100832001C6E1C50D3EC07F01C50A5EC05F00AC04E
:1008420019F00BC01AF00D0E19181A10D8B42CEFAB
:1008520004F02EEF04F017EF04F09AEC07F01C6E90
:100862001C50D3EC07F01C50F3EC06F01B6E650E27
:100872001B18D8B43FEF04F041EF04F017EF04F077
:100882009AEC07F01C6E1C50D3EC07F01C50A5EC40
:1008920005F00AC017F00BC018F00D0E171818104B
:1008A200D8B456EF04F058EF04F017EF04F09AECC6
:1008B20007F01C6E1C50D3EC07F03D0E1C18D8A498
:1008C20065EF04F067EF04F0D5EF04F0C00E06EC1C
:1008D20008F0B8EF04F017501924096E18501A20C6
:1008E2000A6E95EC06F0020E06EC08F017EF04F023
:1008F2001750195C096E18501A580A6E95EC06F0DA
:10090200020E06EC08F017EF04F019C001F01AC04D
:1009120002F017C003F018C004F0E8EC07F001C0C1
:1009220013F002C014F013C009F014C00AF095ECE1
:1009320006F0020E06EC08F017EF04F019C001F001
:100942001AC002F017C003F018C004F033EC06F02E
:1009520001C015F002C016F015C009F016C00AF069
:1009620095EC06F0020E06EC08F017EF04F01B50AF
:10097200116E126A1250000AD8B4C2EF04F0EBEF03
:1009820004F011502A0AD8B486EF04F0010AD8B450
:100992006CEF04F0060AD8B479EF04F0020AD8B476
:1009A2009FEF04F0EBEF04F0430E1C18D8A4DCEF29
:1009B20004F0DEEF04F0E3EF04F0010E06EC08F0C1
:1009C20017EF04F0000E076E000E066E66EC07F0DD
:1009D20017EF04F017EF04F000EF00F0700E8A6ECC
:1009E200FFEF04F03D0EA4EF05F0300EA4EF05F08A
:1009F200430EA4EF05F02F0EA4EF05F08150016E17
:100A0200026A0250000AD8B409EF05F01CEF05F0A3
:100A12000150770AD8B4FCEF04F00C0AD8B4F9EF0D
:100A220004F0060AD8B4F6EF04F0030AD8B4F3EFE0
:100A320004F01CEF05F0B00E8A6E2CEF05F0370EB5
:100A4200A4EF05F0380EA4EF05F0390EA4EF05F07F
:100A52002A0EA4EF05F08150016E026A0250000ACC
:100A6200D8B436EF05F049EF05F00150B70AD8B413
:100A720029EF05F00C0AD8B426EF05F0060AD8B41F
:100A820023EF05F0030AD8B420EF05F049EF05F093
:100A9200D00E8A6E59EF05F0340EA4EF05F0350E34
:100AA200A4EF05F0360EA4EF05F02D0EA4EF05F02D
:100AB2008150016E026A0250000AD8B463EF05F059
:100AC20076EF05F00150D70AD8B456EF05F00C0ABC
:100AD200D8B453EF05F0060AD8B450EF05F0030A74
:100AE200D8B44DEF05F076EF05F0E00E8A6E86EF92
:100AF20005F0310EA4EF05F0320EA4EF05F0330E2F
:100B0200A4EF05F02B0EA4EF05F08150016E026AEE
:100B12000250000AD8B490EF05F0A3EF05F001509F
:100B2200E70AD8B483EF05F00C0AD8B480EF05F0D9
:100B3200060AD8B47DEF05F0030AD8B47AEF05F0BF
:100B4200A3EF05F0780E12000E6EF5EF05F0000E21
:100B5200106E000E0F6E2EEF06F0000E106E010EDC
:100B62000F6E2EEF06F0000E106E020E0F6E2EEFBD
:100B720006F0000E106E030E0F6E2EEF06F0000E42
:100B8200106E040E0F6E2EEF06F0000E106E050EA4
:100B92000F6E2EEF06F0000E106E060E0F6E2EEF89
:100BA20006F0000E106E070E0F6E2EEF06F0000E0E
:100BB200106E080E0F6E2EEF06F0000E106E090E6C
:100BC2000F6E2EEF06F0010E06EC08F0000E106E0E
:100BD2000D0E0F6E2EEF06F0000E076E000E066E63
:100BE20066EC07F0E7EF05F00E500C6E0D6A0D5043
:100BF200000AD8B4FFEF05F0EDEF05F00C50300A13
:100C0200D8B4A8EF05F0010AD8B4AEEF05F0030A94
:100C1200D8B4B4EF05F0010AD8B4BAEF05F0070A68
:100C2200D8B4C0EF05F0010AD8B4C6EF05F0030A44
:100C3200D8B4CCEF05F0010AD8B4D2EF05F00F0A10
:100C4200D8B4D8EF05F0010AD8B4DEEF05F07A0A7D
:100C5200D8B4E4EF05F0EDEF05F00FC00AF010C0D4
:100C62000BF01200000E066E04BE3CEF06F03AEFE7
:100C720006F042EF06F0036C041ED8B0042A010EFF
:100C8200066E02BE49EF06F047EF06F04FEF06F0A0
:100C9200016C021ED8B0022A010E061A000E086E5E
:100CA200000E076E03500410D8B45AEF06F05CEF42
:100CB20006F084EF06F0010E056E64EF06F0D890A0
:100CC20003360436052A04AE69EF06F06BEF06F030
:100CD20060EF06F0D890073608360350015C0450E6
:100CE2000258D8A077EF06F079EF06F07EEF06F013
:100CF2000350015E0450025A0780D8900432033236
:100D0200052E6BEF06F00650D8B48AEF06F08CEF92
:100D120006F090EF06F0076C081ED8B0082A07C04C
:100D220001F008C002F01200000E0C6E000E0D6EF3
:100D32000ABEA0EF06F09EEF06F0AAEF06F0096CDD
:100D42000A1ED8B00A2A1E0E046E080E056EB8ECF2
:100D520007F009C001F00AC002F0000E046E640E32
:100D6200036E33EC06F001500D6E0DC001F0026A05
:100D7200FF0E046E9C0E036EE8EC07F0095001248E
:100D8200096E0A5002200A6E09C001F00AC002F080
:100D9200000E046E0A0E036E33EC06F001500C6E68
:100DA2000D50D8B4D7EF06F0D9EF06F0DDEF06F01C
:100DB2000D50300FD3EC07F00C50D8B4E3EF06F02F
:100DC200E5EF06F0E9EF06F00C50300FD3EC07F038
:100DD2000C50F60DF35009240B6E0B50300FD3EC70
:100DE20007F012000A6E430E0A18D8A4FBEF06F0B1
:100DF200FDEF06F003EF07F0010E06EC08F0650EBA
:100E020030EF07F02B0E0A18D8B40AEF07F00CEFF8
:100E120007F02FEF07F02D0E0A18D8B413EF07F0E2
:100E220015EF07F02FEF07F02A0E0A18D8B41CEFBF
:100E320007F01EEF07F02FEF07F02F0E0A18D8B4B5
:100E420025EF07F027EF07F02FEF07F0000E076EF0
:100E5200010E066E66EC07F000EF07F00A50120072
:100E6200000E956E8B948B928B90000E8B6E9490ED
:100E720094949492380E06EC08F0030E036E8A0ED8
:100E8200026E560EE82EFED7022EFCD7032EFAD79C
:100E92000E0E06EC08F0030E036E8A0E026E560E5C
:100EA200E82EFED7022EFCD7032EFAD7010E06EC4F
:100EB20008F0030E036E8A0E026E560EE82EFED75F
:100EC200022EFCD7032EFAD71200010E06EC08F010
:100ED20083EF07F0110E046E080E056EB8EC07F0F2
:100EE20099EF07F0010E046E080E056EB8EC07F0DC
:100EF20099EF07F0110E046E080E056EB8EC07F0BC
:100F020099EF07F006C008F007C009F00950000A7F
:100F1200D8B48EEF07F07BEF07F00850000AD8B480
:100F22006BEF07F0010AD8B473EF07F07BEF07F01D
:100F32001200780E1C6EADEF07F0EFEC04F01C6EA1
:100F4200030E046E080E036E770EE82EFED7032EF4
:100F5200FCD7042EFAD700F0780E1C18D8B4B4EFE0
:100F620007F0B6EF07F09EEF07F01C501200C4EF37
:100F720007F004C0F6FF05C0F7FF0800F550D3ECF8
:100F820007F0044A052A04C0F6FF05C0F7FF08006F
:100F9200F5500009D8A4D0EF07F0D2EF07F0BAEF6E
:100FA20007F01200036E8B848B928B8003C08CFF40
:100FB20000F000F08B90030E026E8A0E016E560E48
:100FC200E82EFED7012EFCD7022EFAD712000150CE
:100FD2000302F3CF05F0F4CF06F001500402F35000
:100FE200062602500302F350062605C001F006C091
:100FF20002F012001C6A1B6A1A6A196A186A176AD6
:10100200000EF86E000111EF04F0016E8B948B92CA
:101012008B8000F001C08CFF00F08B901200000E5C
:101022000F015C6F0F0E936E0F0E856EF19E120014
:020000040020DA
:08000000FFFFFFFFFFFFFFFF00
:020000040030CA
:0E00000000285F3CFFD385FF0FC00FE00F40CC
:00000001FF
