:0400000022EF00F0FB
:1000080003824E0E026EEB0EE82EFED7022EFCD7B0
:1000180000F081B012EF00F014EF00F01FEF00F0D5
:10002800012A080E01641BEF00F01DEF00F01FEF1E
:1000380000F0080E016EF292039211007BEF00F0BF
:100048003FEC00F072EC00F08BEC00F02FEF00F0CA
:1000580086EC00F001060150D8A435EF00F037EF28
:1000680000F02CEF00F069EC00F081EC00F026EFD6
:1000780000F022EF00F0640ED36ED08EF28EF28C78
:10008800F19CF288F292000E0F015E6F000E956EE1
:10009800000E836E000E5B6F000E926E000E806E77
:1000A800000E5C6F93801200EE0ED66E850ED76E32
:1000B800850ED56EF2A463EF00F065EF00F05EEFF9
:1000C80000F0F294000ED56E1200410E8C6E58ECC2
:1000D80000F058EC00F058EC00F01200140E8C6E92
:1000E80058EC00F058EC00F058EC00F01200016AEF
:1000F80003900392000124EF00F0210E8C6E58EC5F
:1001080000F01200990E8C6E58EC00F01200120EDE
:080118008C6E58EC00F012009F
:020000040020DA
:08000000FFFFFFFFFFFFFFFF00
:020000040030CA
:0E00000000285F3CFFD385FF0FC00FE00F40CC
:00000001FF
