:04000000CDEF05F04B
:10080000004672656375656E6369613A0020202059
:0508100020487A000001
:10081600000E0C6E0ABE14EF04F012EF04F01AEF8D
:1008260004F0096C0A1ED8B00A2A010E0C6E08BE26
:1008360021EF04F01FEF04F027EF04F0076C081E09
:10084600D8B0082A010E0C1A000E0E6E000E0D6EA0
:1008560009500A10D8B432EF04F034EF04F05CEF1C
:1008660004F0010E0B6E3CEF04F0D89009360A3600
:100876000B2A0AAE41EF04F043EF04F038EF04F020
:10088600D8900D360E360950075C0A500858D8A085
:100896004FEF04F051EF04F056EF04F00950075EF5
:1008A6000A50085A0D80D8900A3209320B2E43EFAF
:1008B60004F00C50D8B462EF04F064EF04F068EF73
:1008C60004F00D6C0E1ED8B00E2A0DC007F00EC037
:1008D60008F01200000E136E000E146E0FC007F023
:1008E60010C008F0000E0A6E640E096E0BEC04F0E0
:1008F6000750146E14C001F0026AFF0E046E9C0EBF
:10090600036E9FEC05F00F500124076E1050022075
:10091600086E000E0A6E0A0E096E0BEC04F0075004
:10092600136E14509C0DF3CF11F01350F60DF350C7
:1009360011240F24126E520E1718D8A4A5EF04F036
:10094600A7EF04F0B5EF04F01450300FB2EC05F049
:100956001350300FB2EC05F01250300FB2EC05F028
:10096600CAEF04F04C0E1718D8A4BCEF04F0BEEF83
:1009760004F0CAEF04F01250300FB2EC05F0135039
:10098600300FB2EC05F01450300FB2EC05F0120047
:10099600340ED36E9288F5EC04F0010E036E080E49
:1009A600046E84EC05F0000E026E010E1EEC05F0DE
:1009B6000D0E036E080E046E84EC05F04C0E46EC2C
:1009C60005F0020E026E010E1EEC05F066EC05F057
:1009D60015C00FF016C010F06DEC04F0E4EF04F053
:1009E60000EF00F0000E956E8B948B928B90000EAC
:1009F6008B6E949094949492380EC3EC05F0520E3C
:100A0600026E2A0EE82EFED7022EFCD70E0EC3EC7F
:100A160005F0520E026E2A0EE82EFED7022EFCD7E5
:100A2600010EC3EC05F0520E026E2A0EE82EFED71A
:100A3600022EFCD71200056E30EF05F00250800939
:100A4600066E0650C3EC05F00250C009066E06504D
:100A5600C3EC05F000F045EF05F00550036E046A9F
:100A66000450000AD8B43AEF05F02DEF05F0035014
:100A7600000AD8B421EF05F0010AD8B427EF05F033
:100A86002DEF05F01200026E520E0218D8A44EEF9A
:100A960005F050EF05F057EF05F0060EC3EC05F034
:100AA600520E176E65EF05F04C0E0218D8A45EEFD5
:100AB60005F060EF05F065EF05F0040EC3EC05F0F8
:100AC6004C0E176E1200EE0ECE6E850ECF6ECC9EBD
:100AD6009E90310ECD6E72EF05F0F80ED56E9EA08B
:100AE60077EF05F079EF05F070EF05F0D6CF15F04A
:100AF600166A000ED56E000ECD6E9E90000ED66E56
:100B0600120090EF05F003C0F6FF04C0F7FF0800DF
:100B1600F550B2EC05F0034A042A03C0F6FF04C000
:100B2600F7FF0800F5500009D8A49CEF05F09EEFEA
:100B360005F086EF05F0120001500302F3CF05F031
:100B4600F4CF06F001500402F350062602500302C9
:100B5600F350062605C001F006C002F01200026E30
:100B66008B848B928B8002C08CFF00F000F08B9000
:100B7600520E016E2A0EE82EFED7012EFCD7120069
:100B8600016E8B948B928B8000F001C08CFF00F07D
:100B96008B901200176A166A156A000EF86E00012D
:040BA600CBEF04F09D
:020000040020DA
:08000000FFFFFFFFFFFFFFFF00
:020000040030CA
:0E00000000285F3CFFD385FF0FC00FE00F40CC
:00000001FF
